:020000040800F2
:1000000000000220C9020008D1020008D502000841
:10001000ED020008F10200080903000800000000DA
:1000200000000000000000000000000021030008A4
:10003000250300080000000029030008D51300086C
:100040003D0300083D0300083D0300083D03000890
:100050003D0300083D0300083D0300083D03000880
:100060003D0300083D0300083D0300083D03000870
:100070003D0300083D0300083D0300083D03000860
:100080003D0300083D0300083D0300080000000098
:100090000000000000000000000000003D03000818
:1000A0003D0300083D0300083D0300083D03000830
:1000B0003D0300083D0300083D0300083D03000820
:1000C0003D0300083D0300083D0300083D03000810
:1000D0003D0300083D0300083D0300080000000048
:1000E0003D0300083D0300083D0300080000000038
:1000F0000000000000000000000000003D030008B8
:10010000000000003D0300083D0300083D03000817
:1001100000000000000000000000000000000000DF
:100120003D0300083D0300083D0300083D030008AF
:100130003D03000800000000000000000000000077
:100140000000000000000000000000003D03000867
:100150003D0300083D0300083D0300083D0300087F
:100160003D0300083D0300080000000000000000FF
:10017000000000000000000000000000000000007F
:10018000000000003D030008000000000000000027
:100190003D0300083D03000800B583B000F004FFF4
:1001A000384B394A1360394A136039490CE00A6800
:1001B0004B6801F10C04886803E01168196004338E
:1001C00004329842F9D82146324B9942EFD32E4B54
:1001D0001A68314B9A4204D12C4B1A682F4B9A4221
:1001E00000D0FEE7274B2E4A13602E4A13602E4B99
:1001F0000AE0194651F8082B5B6802E00020106005
:1002000004329A42FAD30B46284A9342F1D3244B44
:100210001B6813B9234B1B6803B1FEE700F0D0FE47
:10022000694601A800F0B8FE214C224B1C1BA4100B
:10023000002504E01E4B53F8253098470135AC42A9
:10024000F8DC1D4C1D4B1C1BA410002504E01A4BB0
:1002500053F8253098470135AC42F8DC00990198F5
:1002600001F07AF80546164C164B1C1BA41004E04E
:10027000013C134B53F824309847002CF8DC2846F7
:1002800000F088FEBABADECA00000020100000208C
:100290004003000858030008785634123254769808
:1002A0001400002020000020580300086803000804
:1002B0006803000868030008680300086803000872
:1002C000680300086803000808B5FFF765FF00BF72
:1002D00000BEFEE71EF0040F0CBFEFF30880EFF343
:1002E00009807146124A104700BEFEE700BEFEE7D5
:1002F0001EF0040F0CBFEFF30880EFF30980714686
:100300000C4A104700BEFEE71EF0040F0CBFEFF3CF
:100310000880EFF309807146074A104700BEFEE7E8
:1003200000BEFEE700BEFEE700BEFEE7704700002D
:10033000E9020008050300081D03000800BEFEE7EF
:1003400094140008000000201400002094140008F9
:100350000000001000000010140000202400002005
:08036000000000100000001075
:1003680010B5044600F0F8FD064BA3FB00308009E9
:1003780000F0A0F8002221464FF0FF3000F058F8B6
:10038800002010BDD34D621008B50B4B1A6842F41B
:1003980000721A601A6842F480621A601A6842F49D
:1003A80080721A60032000F025F80020FFF7D8FFBC
:1003B80001F000F8002008BD003C0240024A136822
:1003C80001331360704700BF1C000020014B186800
:1003D800704700BF1C00002010B582B00190FFF7E5
:1003E800F5FF0446FFF7F2FF001B019B9842F9D383
:1003F80002B010BD10B50446C31E042B03D9A421B6
:10040800094800F0D5FF094AD36823F4E0631B04C8
:100418001B0C240204F4E064234343F0BF6343F459
:100428000033D36010BD00BFE013000800ED00E00A
:1004380070B504460E4615460F2A03D9BC211A4842
:1004480000F0B6FF0F2E03D9BD21174800F0B0FF0A
:10045800164BDA68C2F30222C2F10701042928BF49
:100468000421131D062B01D9033A00E000220123C1
:1004780003FA01F101393140914003FA02F2013ADD
:100488002A400A43002C06DA04F00F041201D2B203
:10049800074B1A5570BD1201D2B204F1604404F53D
:1004A800614484F8002370BDE013000800ED00E00B
:1004B80014ED00E00138B0F1807F0AD2064B586095
:1004C800F021064A82F823100020986007221A605B
:1004D80070470120704700BF10E000E000ED00E029
:1004E80010B50446042805D020B140F2B3110848DD
:1004F80000F05EFF042C05D1064A136843F004039C
:10050800136010BD034A136823F00403136010BD81
:10051800E013000810E000E0704700BF08B5FFF7DF
:10052800FBFF08BD2DE9F04782B080460F46AA4B75
:10053800984217D003F58063984213D003F580637F
:1005480098420FD003F5806398420BD003F580637F
:10055800984207D003F54063984203D0C5219F48CD
:1005680000F026FF3B881BB9C6219C4800F020FFFD
:100578007B68012B22D9112B20D0022B1ED0122BE5
:100588001CD0974A934219D002F58012934215D095
:1005980002F58012934211D0A2F5F81293420DD0C1
:1005A80002F58012934209D002F58012934205D0D9
:1005B800032B03D0C721894800F0FAFEBB68022B41
:1005C80003D9C821854800F0F3FE0025FEE0012488
:1005D800AC403E682640B44240F0F7807B68022B6E
:1005E80001D0122B40D13B6973B3092B2CD05BB3DC
:1005F80053B34BB343B3012B26D025D0022B23D0C2
:1006080022D021D0042B1FD01ED01DD0052B1BD0EB
:100618001AD019D0062B17D016D0052B14D0062BBC
:1006280012D0072B10D00FD00ED0082B0CD00A2BCD
:100638000AD0092B08D007D00C2B05D00F2B03D0DC
:10064800D921664800F0B4FEEA08083258F82200BA
:1006580005F0070399000F238B4020EA03003B694C
:100668008B40034348F82230D8F800304FEA450A57
:100678004FF0030909FA0AF96FEA090903EA0902BE
:100688007B6803F0030303FA0AF31343C8F8003046
:100698007B685A1E012A03D9112B01D0122B1BD1BA
:1006A800FB68032B03D9EC214C4800F081FED8F8F5
:1006B800083009EA0302FB6803FA0AF31343C8F88F
:1006C8000830D8F8043023EA04047B68C3F3001325
:1006D800AB401C43C8F80440D8F80C3009EA0309B9
:1006E800BB6803FA0AF349EA0303C8F80C307B68CD
:1006F80013F0805F69D0002301933A4B5A6C42F49F
:1007080080425A645B6C03F480430193019BA908FF
:100718008A1C354B53F8222005F003039B000F2059
:10072800984022EA00002C4A904511D002F58062D8
:1007380090450FD002F5806290450DD002F5806299
:1007480090450BD002F58062904509D1042208E05B
:10075800002206E0012204E0022202E0032200E077
:10076800052202FA03F3034302311F4A42F82130FB
:100778001E4B1A68F34302EA0301786810F4803FBD
:1007880001D046EA0201194A1160526803EA0201DF
:10079800786810F4003F01D046EA0201134A51601C
:1007A800926803EA0201786810F4801F01D046EAD3
:1007B80002010E4A9160D2681340796811F4001F53
:1007C80001D046EA0203094AD36001350F2D7FF6AE
:1007D800FEAE02B0BDE8F087000002401414000825
:1007E800000011100038024000380140003C014070
:1007F80070B5064615460C4621B940F2B1110848B5
:1008080000F0D6FD012D04D94FF4D971044800F049
:10081800CFFD0DB1B46170BD2404B46170BD00BFDB
:100828001414000838B504460D4621B94FF4E47194
:10083800034800F0BDFD61696940616138BD00BFD2
:100848001414000830B583B0044603680F2B03D98D
:10085800F6219C4800F0ACFD236813F0010F45D049
:100868006368012B05D9052B03D0FB21954800F0BF
:100878009FFD954B9B6803F00C03042B0AD0924B09
:100888009B6803F00C03082B0CD18F4B5B6813F4A7
:10089800800F07D08C4B1B6813F4003F26D0636889
:1008A80023BBCBE12279894B1A7063687BB1FFF7D0
:1008B8008DFD054605E0FFF789FD401B642800F221
:1008C800BF81814B1B6813F4003FF4D00EE0FFF7A3
:1008D8007DFD054605E0FFF779FD401B642800F221
:1008E800B181794B1B6813F4003FF4D1236813F0EE
:1008F800020F6AD0E368012B04D940F22D11714828
:1009080000F056FD23691F2B04D94FF497716D48E9
:1009180000F04EFD6C4B9B6813F00C0F0AD06A4B2D
:100928009B6803F00C03082B1BD1674B5B6813F41F
:10093800800F16D1644B1B6813F0020F03D0E368D5
:10094800012B40F081816048036823F0F801236996
:10095800F82292FAA2F2B2FA82F293400B430360B1
:1009680033E0E368FBB10122594B1A60FFF72EFD13
:10097800054605E0FFF72AFD401B022800F26681C4
:10098800514B1B6813F0020FF4D04F48036823F053
:10099800F8012369F82292FAA2F2B2FA82F293409D
:1009A8000B43036011E00022494B1A60FFF70EFD6C
:1009B800054605E0FFF70AFD401B022800F24881C2
:1009C800414B1B6813F0020FF4D1236813F0080F92
:1009D8002ED06369012B04D94FF4B771394800F060
:1009E800E7FC636993B101223A4B1A60FFF7EEFC0A
:1009F800054605E0FFF7EAFC401B022800F22A81C1
:100A0800314B5B6F13F0020FF4D011E00022314B31
:100A18001A60FFF7DBFC054605E0FFF7D7FC401B33
:100A2800022800F21981284B5B6F13F0020FF4D1F2
:100A3800236813F0040F60D0A368012B06D9052B97
:100A480004D04FF4CC711F4800F0B2FC002301938E
:100A58001D4B1A6C42F080521A641B6C03F08053D1
:100A68000193019B1C4A136843F480731360FFF7DA
:100A7800ADFC054605E0FFF7A9FC401B022800F283
:100A8800ED80154B1B6813F4807FF4D0227A134B4A
:100A98001A70A3688BB1FFF799FC054607E0FFF7CA
:100AA80095FC401B41F28833984200F2D980064BEE
:100AB8001B6F13F0020FF2D01FE0FFF787FC05460B
:100AC80016E000BF54140008003802400238024003
:100AD80000004742800E47420070004070380240D4
:100AE800FFF774FC401B41F28833984200F2BA8049
:100AF800634B1B6F13F0020FF2D1A369022B04D9C9
:100B080040F2CD115F4800F053FCA369002B00F0C0
:100B1800AB805B4A926802F00C02082A00F0A680BB
:100B2800022B78D1E3693BB1B3F5800F04D04FF4C1
:100B3800EB71544800F03CFC236A3F2B04D940F287
:100B4800D711504800F034FC636AC03BF02B04D93D
:100B58004FF4EC714B4800F02BFCA36A022B0AD02F
:100B6800042B08D0062B06D0082B04D040F2D9114C
:100B7800444800F01DFCE36A043B0B2B04D94FF4F6
:100B8800ED71404800F014FC00223F4B1A60FFF75B
:100B98001DFC054604E0FFF719FC401B022867D836
:100BA800374B1B6813F0007FF5D1E169236A1943BD
:100BB800636A47F6C07292FAA2F2B2FA82F29340DE
:100BC8001943A36A5B085A1E4FF4403393FAA3F300
:100BD800B3FA83F302FA03F30B43E26A4FF070614E
:100BE80091FAA1F1B1FA81F18A401343244A536082
:100BF8000122254B1A60FFF7E9FB044604E0FFF7E2
:100C0800E5FB001B022835D81D4B1B6813F0007F3D
:100C1800F5D0002031E000221B4B1A60FFF7D6FB0D
:100C2800044604E0FFF7D2FB001B022824D8144B2B
:100C38001B6813F0007FF5D100201EE001201CE0A6
:100C480003201AE0032018E0012016E0032014E036
:100C5800032012E0032010E003200EE003200CE044
:100C680003200AE0032008E0002006E0012004E059
:100C7800032002E0032000E0032003B030BD00BFE2
:100C880000380240541400086000474270B504461A
:100C98000D460368013B0E2B04D94FF40E718348AF
:100CA80000F086FB072D04D940F239217F4800F077
:100CB8007FFB7F4B1B6803F00F039D4208D9EBB203
:100CC8007B4A1370136803F00F039D4240F0DB80EA
:100CD800236813F0020F1DD0A368A3B1802B12D094
:100CE800902B10D0A02B0ED0B02B0CD0C02B0AD03C
:100CF800D02B08D0E02B06D0F02B04D04FF4147181
:100D08006A4800F055FB6B498B6823F0F002A36832
:100D180013438B60236813F0010F64D06368032BBF
:100D280004D940F25721614800F042FB6268012A69
:100D380005D1604B1B6813F4003F0FD1A5E0931E4B
:100D4800012B05D85B4B1B6813F0007F06D19EE092
:100D5800584B1B6813F0020F00F09B8055498B68B5
:100D680023F0030313438B60FFF730FB06466368E9
:100D7800012B0FD107E0FFF729FB801B41F28833D5
:100D8800984200F288804B4B9B6803F00C03042BBD
:100D9800F1D128E0022B0ED106E0FFF717FB801BEC
:100DA80041F28833984278D8424B9B6803F00C0391
:100DB800082BF2D117E0032B10D13E4B9B68FFF7AD
:100DC80005FB801B41F288339842F6D967E0FFF7AC
:100DD800FDFA801B41F28833984262D8354B9B68F4
:100DE80013F00C0FF3D1324B1B6803F00F039D4235
:100DF80007D2EAB22E4B1A701B6803F00F039D420C
:100E080051D1236813F0040F19D0E36883B1B3F507
:100E1800805F0DD0B3F5A05F0AD0B3F5C05F07D0EF
:100E2800B3F5E05F04D040F2B521204800F0C0FAE5
:100E380020498B6823F4E052E36813438B602368EE
:100E480013F0080F1AD0236983B1B3F5805F0DD072
:100E5800B3F5A05F0AD0B3F5C05F07D0B3F5E05F84
:100E680004D04FF42F71114800F0A2FA114A936888
:100E780023F46043216943EAC10393600020FFF72C
:100E88006FFA002070BD012070BD012070BD0120E7
:100E980070BD012070BD032070BD032070BD03200C
:100EA80070BD032070BD012070BD00BF5414000840
:100EB800003C024000380240244B9B6803F00C03BE
:100EC800042B3FD0082B01D02148704710B41F4B8A
:100ED800586800F03F005B6813F4800F10D01D4B7A
:100EE800B3FBF0F0194B5A6847F6C0710A4091FA03
:100EF800A1F3B3FA83F322FA03F303FB00F310E040
:100F0800134BB3FBF0F0114B5A6847F6C07402EA72
:100F1800040194FAA4F2B2FA82F221FA02F202FB74
:100F280000F30A4A506800F440324FF4403090FA17
:100F3800A0F0B0FA80F022FA00F001304000B3FBD4
:100F4800F0F001E00348704710BC704700380240D9
:100F58000024F40000D8B80508B5FFF7ADFF084B2A
:100F68009B6803F0F002F02393FAA3F3B3FA83F338
:100F780022FA03F3034AD35CD840034B186008BD38
:100F880000380240441400080C000020FEE700BFAF
:100F980001230360014B0B60704700BF0400002071
:100FA80008B500F00DF8024B024A9A6008BD00BF70
:100FB80000ED00E00000000808B500F021F808BDC9
:100FC8000C4B1A6842F001021A60002199601A68F5
:100FD80022F0847222F480321A60074A5A601A6832
:100FE80022F480221A60D9604FF00062034B9A60A5
:100FF800704700BF003802401030002400ED00E0C8
:10100800224B9B6803F00C03042B07D0082B09D054
:10101800002B2DD11E4A1F4B1A602CE01E4A1D4B77
:101028001A6028E0194B5A685B6803F03F0312F412
:10103800800F09D0184AB2FBF3F2144B5B68C3F374
:10104800881303FB02F208E0114AB2FBF3F30F4ADC
:101058005168C1F3881101FB03F20C4B5B68C3F3C1
:10106800014301335B00B2FBF3F30A4A136002E069
:10107800074A084B1A60054B9B68C3F30313074ADA
:10108800D15C044A1368CB401360704700380240B3
:101098000024F4000C00002000D8B80584140008CF
:1010A8002DE9F04F8DB000240194794B1A6B42F072
:1010B80010021A631A6B02F010020192019A02944C
:1010C8001A6B42F004021A631A6B02F004020292CD
:1010D800029A03941A6B42F080021A631A6B02F0A8
:1010E80080020392039A04941A6B42F001021A6375
:1010F8001A6B02F001020492049A05941A6B42F0EA
:1011080002021A631A6B02F002020592059A06940B
:101118001A6B42F008021A631B6B03F0080306936C
:10112800069B4FF00409CDF81C900894099407A970
:101138005848FFF7F7F908270797012508950994F4
:101148000A9407A95348FFF7EDF932230793DFF80C
:1011580058A1CDF820A0099407A94E48FFF7E2F955
:101168000795089509940A9407A94B48FFF7DAF9F7
:1011780007970226089609940A944FF00508CDF8B7
:101188002C8007A94448FFF7CDF90795CDF820A092
:10119800099407A94148FFF7C5F910230793089652
:1011A80009940A944FF0060BCDF82CB007A93B48D8
:1011B800FFF7B8F9E0230793089609944FF0030A5C
:1011C800CDF828A0CDF82C8007A93448FFF7AAF954
:1011D8004FF4A0530793089609940A94CDF82C80ED
:1011E80007A92F48FFF79EF94FF21008CDF81C8089
:1011F800089509940A9407A92A48FFF793F94FF428
:10120800A4530793089609940A94CDF82CB007A91B
:101218002148FFF787F94FF400730793089409945E
:1012280007A91E48FFF77EF94FF4E0530793089685
:101238000994CDF828A00A230B9307A91748FFF7AC
:1012480071F9202307930894099407A91548FFF713
:1012580069F94FF4107307931223089309950A94B8
:10126800CDF82C9007A90E48FFF75CF922463946BD
:101278000848FFF7BDFA224629460748FFF7B8FA9B
:10128800224641460748FFF7B3FA0DB0BDE8F08F94
:1012980000380240001002400008024000000240EE
:1012A80000040240000C02400000121070B594B017
:1012B80000240194234B1A6C42F080521A641B6C70
:1012C80003F080530193019B02941F4B1A6842F468
:1012D80040421A601B6803F440430293029B0225B4
:1012E800089501230B9310230C930E950F94082354
:1012F8001093C022119204261296139308A8FFF7A0
:10130800A1FA0F230393049505944FF4A053069371
:101318004FF480530793032103A8FFF7B7FCFFF7A7
:101328001BFE0A4BA3FB00308009FFF7C3F83046C9
:10133800FFF7D6F8224621464FF0FF30FFF778F83E
:1013480014B070BD0038024000700040D34D6210E8
:1013580008B5FFF719F8FFF7A9FFFFF7A1FE134C2F
:101368004FF400412046FFF75DFA4FF4FA70FFF79B
:1013780033F84FF480512046FFF754FA4FF4FA70CF
:10138800FFF72AF84FF400512046FFF74BFA4FF4C5
:10139800FA70FFF721F84FF480412046FFF742FA30
:1013A8004FF4FA70FFF718F8D9E700BF000C0240B5
:1013B800704700BF08B50720FFF71CF80022114648
:1013C8004FF0FF30FFF734F808BD00BF08B5FEF74F
:1013D800F5FFFFF7A3F808BD2E2E2F7379737465F8
:1013E8006D2F7372632F73746D333266342D686199
:1013F8006C2F73746D3332663478785F68616C5F14
:10140800636F727465782E63000000002E2E2F73B0
:10141800797374656D2F7372632F73746D333266CD
:10142800342D68616C2F73746D3332663478785F4D
:1014380068616C5F6770696F2E63000000000000D0
:101448000102030401020304060708092E2E2F7364
:10145800797374656D2F7372632F73746D3332668D
:10146800342D68616C2F73746D3332663478785F0D
:1014780068616C5F7263632E630000000000000007
:0C14880000000000010203040607080930
:101494007856341218000020000000000024F400E4
:0414A40032547698B0
:040000050800019955
:00000001FF
