:020000040800F2
:1000000000000220C9020008D1020008D502000841
:10001000ED020008F10200080903000800000000DA
:1000200000000000000000000000000021030008A4
:10003000250300080000000029030008611C0008D7
:100040003D0300083D0300083D0300083D03000890
:100050003D0300083D0300086D1C00083D03000837
:100060003D0300083D0300083D0300083D03000870
:100070003D0300083D0300083D0300083D03000860
:100080003D0300083D0300083D0300080000000098
:100090000000000000000000000000003D03000818
:1000A0003D0300083D0300083D0300083D03000830
:1000B0003D0300083D0300083D0300083D03000820
:1000C0003D0300083D0300083D0300083D03000810
:1000D0003D0300083D0300083D0300080000000048
:1000E0003D0300083D0300083D0300080000000038
:1000F0000000000000000000000000003D030008B8
:10010000000000003D0300083D0300083D03000817
:1001100000000000000000000000000000000000DF
:100120003D0300083D0300083D0300083D030008AF
:100130003D03000800000000000000000000000077
:100140000000000000000000000000003D03000867
:100150003D0300083D0300083D030008791C00082A
:100160003D0300083D0300080000000000000000FF
:10017000000000000000000000000000000000007F
:10018000000000003D030008000000000000000027
:100190003D0300083D03000800B583B001F0B2FB49
:1001A000384B394A1360394A136039490CE00A6800
:1001B0004B6801F10C04886803E01168196004338E
:1001C00004329842F9D82146324B9942EFD32E4B54
:1001D0001A68314B9A4204D12C4B1A682F4B9A4221
:1001E00000D0FEE7274B2E4A13602E4A13602E4B99
:1001F0000AE0194651F8082B5B6802E00020106005
:1002000004329A42FAD30B46284A9342F1D3244B44
:100210001B6813B9234B1B6803B1FEE701F07EFB9B
:10022000694601A801F066FB214C224B1C1BA4105F
:10023000002504E01E4B53F8253098470135AC42A9
:10024000F8DC1D4C1D4B1C1BA410002504E01A4BB0
:1002500053F8253098470135AC42F8DC00990198F5
:1002600001F098FC0546164C164B1C1BA41004E02C
:10027000013C134B53F824309847002CF8DC2846F7
:1002800001F036FBBABADECA0000002010000020E0
:100290004003000858030008785634123254769808
:1002A00014000020640000205803000868030008C0
:1002B0006803000868030008680300086803000872
:1002C000680300086803000808B5FFF765FF00BF72
:1002D00000BEFEE71EF0040F0CBFEFF30880EFF343
:1002E00009807146124A104700BEFEE700BEFEE7D5
:1002F0001EF0040F0CBFEFF30880EFF30980714686
:100300000C4A104700BEFEE71EF0040F0CBFEFF3CF
:100310000880EFF309807146074A104700BEFEE7E8
:1003200000BEFEE700BEFEE700BEFEE7704700002D
:10033000E9020008050300081D03000800BEFEE7EF
:100340008C1D000800000020140000208C1D0008F7
:1003500000000010000000101400002068000020C1
:08036000000000100000001075
:1003680010B5044600F01CFE064BA3FB00308009C4
:1003780000F0B6F8002221464FF0FF3000F058F8A0
:10038800002010BDD34D621008B50B4B1A6842F41B
:1003980000721A601A6842F480621A601A6842F49D
:1003A80080721A60032000F025F80020FFF7D8FFBC
:1003B80001F016FC002008BD003C0240024A136808
:1003C80001331360704700BF1C000020014B186800
:1003D800704700BF1C00002010B582B00190FFF7E5
:1003E800F5FF0446FFF7F2FF001B019B9842F9D383
:1003F80002B010BD10B50446C31E042B03D9A421B6
:10040800094801F0EBFB094AD36823F4E0631B04B5
:100418001B0C240204F4E064234343F0BF6343F459
:100428000033D36010BD00BF881C000800ED00E059
:1004380070B504460E4615460F2A03D9BC211A4842
:1004480001F0CCFB0F2E03D9BD21174801F0C6FBE4
:10045800164BDA68C2F30222C2F10701042928BF49
:100468000421131D062B01D9033A00E000220123C1
:1004780003FA01F101393140914003FA02F2013ADD
:100488002A400A43002C06DA04F00F041201D2B203
:10049800074B1A5570BD1201D2B204F1604404F53D
:1004A800614484F8002370BD881C000800ED00E05A
:1004B80014ED00E010B5041E03DAD021064801F05F
:1004C8008DFB620904F01F04012303FA04F4034BB3
:1004D80043F8224010BD00BF881C000800E100E07E
:1004E8000138B0F1807F0AD2064B5860F021064AE5
:1004F80082F823100020986007221A6070470120B4
:10050800704700BF10E000E000ED00E010B50446C1
:10051800042805D020B140F2B311084801F05EFB71
:10052800042C05D1064A136843F00403136010BD78
:10053800034A136823F00403136010BD881C0008E5
:1005480010E000E0704700BF08B5FFF7FBFF08BDEB
:100558002DE9F04782B080460F46AA4B984217D043
:1005680003F58063984213D003F5806398420FD057
:1005780003F5806398420BD003F58063984207D057
:1005880003F54063984203D0C5219F4801F026FB3C
:100598003B881BB9C6219C4801F020FB7B68012BD6
:1005A80022D9112B20D0022B1ED0122B1CD0974AF7
:1005B800934219D002F58012934215D002F58012A9
:1005C800934211D0A2F5F81293420DD002F5801291
:1005D800934209D002F58012934205D0032B03D031
:1005E800C721894801F0FAFABB68022B03D9C82150
:1005F800854801F0F3FA0025FEE00124AC403E688E
:100608002640B44240F0F7807B68022B01D0122BC1
:1006180040D13B6973B3092B2CD05BB353B34BB3B5
:1006280043B3012B26D025D0022B23D022D021D0B2
:10063800042B1FD01ED01DD0052B1BD01AD019D0CB
:10064800062B17D016D0052B14D0062B12D0072B4B
:1006580010D00FD00ED0082B0CD00A2B0AD0092BA3
:1006680008D007D00C2B05D00F2B03D0D921664812
:1006780001F0B4FAEA08083258F8220005F0070336
:1006880099000F238B4020EA03003B698B4003430A
:1006980048F82230D8F800304FEA450A4FF00309ED
:1006A80009FA0AF96FEA090903EA09027B6803F003
:1006B800030303FA0AF31343C8F800307B685A1E91
:1006C800012A03D9112B01D0122B1BD1FB68032B54
:1006D80003D9EC214C4801F081FAD8F8083009EA2E
:1006E8000302FB6803FA0AF31343C8F80830D8F882
:1006F800043023EA04047B68C3F30013AB401C43B3
:10070800C8F80440D8F80C3009EA0309BB6803FAB2
:100718000AF349EA0303C8F80C307B6813F0805FDA
:1007280069D0002301933A4B5A6C42F480425A64D0
:100738005B6C03F480430193019BA9088A1C354B29
:1007480053F8222005F003039B000F20984022EA6B
:1007580000002C4A904511D002F5806290450FD0D8
:1007680002F5806290450DD002F5806290450BD06D
:1007780002F58062904509D1042208E0002206E0D3
:10078800012204E0022202E0032200E0052202FA2C
:1007980003F3034302311F4A42F821301E4B1A6803
:1007A800F34302EA0301786810F4803F01D046EA77
:1007B8000201194A1160526803EA0201786810F4CC
:1007C800003F01D046EA0201134A5160926803EAE9
:1007D8000201786810F4801F01D046EA02010E4A2F
:1007E8009160D2681340796811F4001F01D046EA7D
:1007F8000203094AD36001350F2D7FF6FEAE02B021
:10080800BDE8F08700000240BC1C00080000111081
:100818000038024000380140003C014070B50646EF
:1008280015460C4621B940F2B111084801F0D6F935
:10083800012D04D94FF4D971044801F0CFF90DB155
:10084800B46170BD2404B46170BD00BFBC1C000855
:1008580038B504460D4621B94FF4E471034801F058
:10086800BDF961696940616138BD00BFBC1C000801
:10087800704700BF08B5044B5B69034203D0024BC5
:100888005861FFF7F5FF08BD003C014030B583B063
:10089800044603680F2B03D9F6219C4801F09EF902
:1008A800236813F0010F45D06368012B05D9052B88
:1008B80003D0FB21954801F091F9954B9B6803F013
:1008C8000C03042B0AD0924B9B6803F00C03082BF3
:1008D8000CD18F4B5B6813F4800F07D08C4B1B68CF
:1008E80013F4003F26D0636823BBCBE12279894B00
:1008F8001A7063687BB1FFF769FD054605E0FFF7ED
:1009080065FD401B642800F2BF81814B1B6813F40E
:10091800003FF4D00EE0FFF759FD054605E0FFF76C
:1009280055FD401B642800F2B181794B1B6813F414
:10093800003FF4D1236813F0020F6AD0E368012B5B
:1009480004D940F22D11714801F048F923691F2B91
:1009580004D94FF497716D4801F040F96C4B9B68CE
:1009680013F00C0F0AD06A4B9B6803F00C03082B9A
:100978001BD1674B5B6813F4800F16D1644B1B685F
:1009880013F0020F03D0E368012B40F08181604827
:10099800036823F0F8012369F82292FAA2F2B2FA66
:1009A80082F293400B43036033E0E368FBB101221A
:1009B800594B1A60FFF70AFD054605E0FFF706FDEB
:1009C800401B022800F26681514B1B6813F0020F8E
:1009D800F4D04F48036823F0F8012369F82292FA0B
:1009E800A2F2B2FA82F293400B43036011E00022B4
:1009F800494B1A60FFF7EAFC054605E0FFF7E6FCFD
:100A0800401B022800F24881414B1B6813F0020F7B
:100A1800F4D1236813F0080F2ED06369012B04D991
:100A28004FF4B771394801F0D9F8636993B10122DD
:100A38003A4B1A60FFF7CAFC054605E0FFF7C6FC0B
:100A4800401B022800F22A81314B5B6F13F0020F22
:100A5800F4D011E00022314B1A60FFF7B7FC0546CD
:100A680005E0FFF7B3FC401B022800F21981284B70
:100A78005B6F13F0020FF4D1236813F0040F60D0FA
:100A8800A368012B06D9052B04D04FF4CC711F485D
:100A980001F0A4F8002301931D4B1A6C42F0805218
:100AA8001A641B6C03F080530193019B1C4A136862
:100AB80043F480731360FFF789FC054605E0FFF7F0
:100AC80085FC401B022800F2ED80154B1B6813F4CF
:100AD800807FF4D0227A134B1A70A3688BB1FFF78A
:100AE80075FC054607E0FFF771FC401B41F28833AF
:100AF800984200F2D980064B1B6F13F0020FF2D018
:100B08001FE0FFF763FC054616E000BFFC1C000869
:100B1800003802400238024000004742800E474237
:100B28000070004070380240FFF750FC401B41F253
:100B38008833984200F2BA80634B1B6F13F0020FA0
:100B4800F2D1A369022B04D940F2CD115F4801F01C
:100B580045F8A369002B00F0AB805B4A926802F06D
:100B68000C02082A00F0A680022B78D1E3693BB179
:100B7800B3F5800F04D04FF4EB71544801F02EF810
:100B8800236A3F2B04D940F2D711504801F026F8C8
:100B9800636AC03BF02B04D94FF4EC714B4801F069
:100BA8001DF8A36A022B0AD0042B08D0062B06D006
:100BB800082B04D040F2D911444801F00FF8E36A39
:100BC800043B0B2B04D94FF4ED71404801F006F8B3
:100BD80000223F4B1A60FFF7F9FB054604E0FFF7D8
:100BE800F5FB401B022867D8374B1B6813F0007FC2
:100BF800F5D1E169236A1943636A47F6C07292FA2C
:100C0800A2F2B2FA82F293401943A36A5B085A1E11
:100C18004FF4403393FAA3F3B3FA83F302FA03F3DE
:100C28000B43E26A4FF0706191FAA1F1B1FA81F1D8
:100C38008A401343244A53600122254B1A60FFF768
:100C4800C5FB044604E0FFF7C1FB001B022835D8AA
:100C58001D4B1B6813F0007FF5D0002031E0002207
:100C68001B4B1A60FFF7B2FB044604E0FFF7AEFB2C
:100C7800001B022824D8144B1B6813F0007FF5D101
:100C880000201EE001201CE003201AE0032018E0E9
:100C9800012016E0032014E0032012E0032010E0F6
:100CA80003200EE003200CE003200AE0032008E004
:100CB800002006E0012004E0032002E0032000E019
:100CC800032003B030BD00BF00380240FC1C000800
:100CD8006000474270B504460D460368013B0E2B81
:100CE80004D94FF40E71834800F078FF072D04D91A
:100CF80040F239217F4800F071FF7F4B1B6803F0F9
:100D08000F039D4208D9EBB27B4A1370136803F0B6
:100D18000F039D4240F0DB80236813F0020F1DD0C3
:100D2800A368A3B1802B12D0902B10D0A02B0ED08B
:100D3800B02B0CD0C02B0AD0D02B08D0E02B06D07B
:100D4800F02B04D04FF414716A4800F047FF6B4948
:100D58008B6823F0F002A36813438B60236813F0B9
:100D6800010F64D06368032B04D940F2572161480E
:100D780000F034FF6268012A05D1604B1B6813F448
:100D8800003F0FD1A5E0931E012B05D85B4B1B68D4
:100D980013F0007F06D19EE0584B1B6813F0020F3A
:100DA80000F09B8055498B6823F0030313438B6045
:100DB800FFF70CFB06466368012B0FD107E0FFF72E
:100DC80005FB801B41F28833984200F288804B4B28
:100DD8009B6803F00C03042BF1D128E0022B0ED101
:100DE80006E0FFF7F3FA801B41F28833984278D87F
:100DF800424B9B6803F00C03082BF2D117E0032B3E
:100E080010D13E4B9B68FFF7E1FA801B41F2883313
:100E18009842F6D967E0FFF7D9FA801B41F2883388
:100E2800984262D8354B9B6813F00C0FF3D1324BC4
:100E38001B6803F00F039D4207D2EAB22E4B1A70CB
:100E48001B6803F00F039D4251D1236813F0040F70
:100E580019D0E36883B1B3F5805F0DD0B3F5A05F17
:100E68000AD0B3F5C05F07D0B3F5E05F04D040F215
:100E7800B521204800F0B2FE20498B6823F4E052E7
:100E8800E36813438B60236813F0080F1AD02369B3
:100E980083B1B3F5805F0DD0B3F5A05F0AD0B3F589
:100EA800C05F07D0B3F5E05F04D04FF42F7111484D
:100EB80000F094FE114A936823F46043216943EAE1
:100EC800C10393600020FFF74BFA002070BD01209A
:100ED80070BD012070BD012070BD012070BD0320D0
:100EE80070BD032070BD032070BD032070BD0120BC
:100EF80070BD00BFFC1C0008003C024000380240E6
:100F0800244B9B6803F00C03042B3FD0082B01D023
:100F18002148704710B41F4B586800F03F005B68C9
:100F280013F4800F10D01D4BB3FBF0F0194B5A6827
:100F380047F6C0710A4091FAA1F3B3FA83F322FA93
:100F480003F303FB00F310E0134BB3FBF0F0114B7A
:100F58005A6847F6C07402EA040194FAA4F2B2FA95
:100F680082F221FA02F202FB00F30A4A506800F406
:100F780040324FF4403090FAA0F0B0FA80F022FAF4
:100F880000F001304000B3FBF0F001E00348704787
:100F980010BC7047003802400024F40000D8B8059F
:100FA80008B5FFF7ADFF084B9B6803F0F002F0238C
:100FB80093FAA3F3B3FA83F322FA03F3034AD35C55
:100FC800D840034B186008BD00380240EC1C0008EC
:100FD8000C00002008B5FFF7E3FF084B9B6803F4FB
:100FE800E0524FF4E05393FAA3F3B3FA83F322FAEF
:100FF80003F3034AD35CD84008BD00BF0038024061
:10100800EC1C000808B5FFF7CBFF084B9B6803F4FE
:1010180060424FF4604393FAA3F3B3FA83F322FADE
:1010280003F3034AD35CD84008BD00BF0038024030
:10103800EC1C000890F83930DBB2212B2AD18368E8
:10104800B3F5805F0FD1036A02681B88C3F30803F6
:10105800536003691BB9036A0233036209E0036A38
:101068000133036205E00268036A591C01621B78B8
:101078005360C38C013B9BB2C3846BB90268D368CD
:1010880023F08003D3600268D36843F04003D36041
:101098000020704702207047002070472DE9F84370
:1010A80004464268B14B9A4204D940F2DD61B04827
:1010B80000F094FDE3683BB1B3F5005F04D040F263
:1010C800DE61AB4800F08AFD236953B1B3F5806F48
:1010D80007D0B3F5C06F04D040F2DF61A44800F038
:1010E8007DFD63694FF6F372134200D123B94FF4C3
:1010F800DC619F4800F072FD21680B6923F44052BF
:10110800E36813430B612068C36823F4164222F096
:101118000C02A1682369194363691943E3690B4306
:101128001343C36021684B6923F44072A3691343D6
:101138004B61E369B3F5004F40F0BB80276803F1CA
:10114800804303F510439F4203D003F580639F4219
:1011580057D1FFF757FF00EB800000EB8000656870
:101168006D00B0FBF5F5834EA6FB05356D092D0125
:10117800FFF748FF00EB800000EB800063685B002E
:10118800B0FBF3F9FFF73EFF00EB800000EB8000B7
:1011980063685B00B0FBF3F3A6FB03235B094FF026
:1011A800640808FB1393DB003233A6FB03235B09B7
:1011B8005B0003F4F8731D44FFF724FF00EB800085
:1011C80000EB800063685B00B0FBF3F9FFF71AFFE0
:1011D80000EB800000EB800063685B00B0FBF3F37A
:1011E800A6FB03235B0908FB13984FEAC80808F11C
:1011F8003208A6FB0836C6F342163544BD60BDE882
:10120800F883FFF7E7FE00EB800000EB80006568DD
:101218006D00B0FBF5F5574EA6FB05356D092D01A0
:10122800FFF7D8FE00EB800000EB800063685B00EE
:10123800B0FBF3F9FFF7CEFE00EB800000EB800077
:1012480063685B00B0FBF3F3A6FB03235B094FF075
:10125800640808FB1393DB003233A6FB03235B0906
:101268005B0003F4F8731D44FFF7B4FE00EB800045
:1012780000EB800063685B00B0FBF3F9FFF7AAFEA0
:1012880000EB800000EB800063685B00B0FBF3F3C9
:10129800A6FB03235B0908FB13984FEAC80808F16B
:1012A8003208A6FB0836C6F342163544BD60BDE8D1
:1012B800F8832668304B9E4203D003F580639E4234
:1012C8005CD1FFF79FFE00EB800000EB80006568B3
:1012D800AD00B0FBF5F5274FA7FB05356D092D01CE
:1012E800FFF790FE00EB800000EB800063689B0036
:1012F800B0FBF3F8FFF786FE00EB800000EB800000
:1013080063689B00B0FBF3F3A7FB03235B094FF073
:10131800640909FB13831B013233A7FB03235B0911
:1013280003F0F0031D44FFF76DFE00EB800000EBB7
:10133800800063689B00B0FBF3F8FFF763FE00EBE7
:10134800800000EB800063689B00B0FBF3F3A7FB11
:1013580003235B0909FB13831B013233A7FB032318
:10136800C3F343131D44B560BDE8F883A037A0005C
:101378002C1D00081F85EB5100100140FFF72AFEC5
:1013880000EB800000EB80006568AD00B0FBF5F570
:10139800254FA7FB05356D092D01FFF71BFE00EB57
:1013A800800000EB800063689B00B0FBF3F8FFF758
:1013B80011FE00EB800000EB800063689B00B0FB2F
:1013C800F3F3A7FB03235B094FF0640909FB1383BD
:1013D8001B013233A7FB03235B0903F0F0031D4411
:1013E800FFF7F8FD00EB800000EB800063689B00CE
:1013F800B0FBF3F8FFF7EEFD00EB800000EB800098
:1014080063689B00B0FBF3F3A7FB03235B0909FBAD
:1014180013831B013233A7FB0323C3F343131D4478
:10142800B560BDE8F88300BF1F85EB512DE9F04199
:1014380005460E4690461C46FEF7C8FF0746B8F11B
:10144800000F28D057E0B4F1FF3F24D024B1FEF7B5
:10145800BDFFC01B84421ED22A68D36823F08003D4
:10146800D3602A68D36823F02003D3602A68D3683E
:1014780023F48073D3602A68536923F0010353610E
:10148800202385F8393085F83A30002385F838303C
:101498000320BDE8F0812B681B6836EA0303D2D12C
:1014A8000020BDE8F081B4F1FF3F24D024B1FEF75D
:1014B8008DFFC01B84421ED22A68D36823F08003A4
:1014C800D3602A68D36823F02003D3602A68D368DE
:1014D80023F48073D3602A68536923F001035361AE
:1014E800202385F8393085F83A30002385F83830DC
:1014F8000320BDE8F0812B681B6836EA0303D2D0CD
:101508000020BDE8F08100BF002875D010B5044662
:101518008369FBB10368394A93420BD0A2F54C4268
:10152800934207D002F55042934203D0FB2134483E
:1015380000F054FBA369F3B1B3F5807F1BD0B3F57A
:10154800007F18D0B3F5407F15D0FC212C4800F05F
:1015580045FB10E00368294A93420CD0A2F54C429F
:10156800934208D002F55042934204D04FF4807160
:10157800234800F033FBA3683BB1B3F5805F04D088
:101588004FF481711E4800F029FBE3693BB1B3F5C4
:10159800004F04D040F20311194800F01FFB94F8E3
:1015A800393013F0FF0F05D1002384F83830204676
:1015B80000F022FB242384F839302268D36823F40E
:1015C8000053D3602046FFF769FD2268136923F4AE
:1015D800904313612268536923F02A0353612268F8
:1015E800D36843F40053D3600020E063202384F8D9
:1015F800393084F83A3010BD01207047001001409E
:101608002C1D000870B51E4690F83930DBB2202B2F
:1016180049D104460D46002947D0002A47D090F802
:101628003830012B45D0012380F838300023C363BC
:10163800212380F839308284C28422E0013BE3848C
:10164800A368B3F5805F11D133460022802120467C
:10165800FFF7ECFE78BB22682B88C3F308035360BE
:1016680023690BB902350CE001350AE03346002244
:1016780080212046FFF7DAFEF8B923682A785A60F5
:101688000135E38C002BD9D1334600224021204676
:10169800FFF7CCFE034690B9202284F839200022B7
:1016A80084F838200CE002230AE0012308E0012333
:1016B80006E0022304E0032302E0032300E00323FF
:1016C800184670BD90F83A30DBB2202B23D121B3F5
:1016D8002AB390F83830012B23D0012380F8383012
:1016E80081628285C2850023C363222280F83A2062
:1016F8000168CA6842F48072CA6001684A6942F0A7
:1017080001024A6180F838300168CA6842F0200254
:10171800CA601846704702207047012070470120B0
:1017280070470220704700BF704700BF08B50168C6
:10173800CB6823F04003CB60202380F83930FFF7D3
:10174800F3FF002008BD00BF08B590F83A30DBB2BF
:10175800222B43D18368B3F5805F13D1826A036972
:1017680043B903685B68C3F308031380836A0233D1
:10177800836218E003685B68DBB21380836A013315
:10178800836210E0036933B9836A5A1C8262026873
:1017980052681A7007E0826A531C836203685B68A8
:1017A80003F07F031370C38D013B9BB2C385BBB9A4
:1017B8000268D36823F02003D3600268D36823F457
:1017C8008073D3600268536923F0010353612023B7
:1017D80080F83A3000F076F9002008BD022008BDF4
:1017E800002008BD704700BF10B584B004460368E8
:1017F8001968DA6811F0010F0DD002F4807252B145
:10180800002200921A6800925A680092009AC26BED
:1018180042F00102C26319685A6902F0010211F02C
:10182800020F0BD052B1002201921A6801925A6835
:101838000192019AE26B42F00402E26319685A6964
:1018480002F0010211F0040F0BD052B100220292F3
:101858001A6802925A680292029AE26B42F00202F5
:10186800E26319685A6902F0010211F0080F0BD0FF
:1018780052B1002203921A6803925A680392039A9B
:10188800E26B42F00802E2631A68DB6803F02003A7
:1018980012F0200F03D013B12046FFF755FF23683D
:1018A8001A68DB6803F0800312F0800F03D013B1CD
:1018B8002046FFF7BFFB23681A68DB6803F0400384
:1018C80012F0400F03D013B12046FFF72FFFE36B50
:1018D8003BB1202384F8393084F83A302046FFF7AA
:1018E80081FF04B010BD00BFFEE700BF0123036005
:1018F800014B0B60704700BF0400002008B500F0E2
:101908000DF8024B024A9A6008BD00BF00ED00E0E6
:101918000000000808B500F021F808BD0C4B1A6853
:1019280042F001021A60002199601A6822F084725C
:1019380022F480321A60074A5A601A6822F4802218
:101948001A60D9604FF00062034B9A60704700BF7D
:10195800003802401030002400ED00E0224B9B6864
:1019680003F00C03042B07D0082B09D0002B2DD132
:101978001E4A1F4B1A602CE01E4A1D4B1A6028E0B5
:10198800194B5A685B6803F03F0312F4800F09D0C3
:10199800184AB2FBF3F2144B5B68C3F3881303FBDA
:1019A80002F208E0114AB2FBF3F30F4A5168C1F39F
:1019B800881101FB03F20C4B5B68C3F3014301334D
:1019C8005B00B2FBF3F30A4A136002E0074A084BD4
:1019D8001A60054B9B68C3F30313074AD15C044A9A
:1019E8001368CB4013607047003802400024F400AD
:1019F8000C00002000D8B8055C1D000870B588B040
:101A080000240094204B1A6B42F001021A631A6BEF
:101A180002F001020092009A01941A6B42F0080247
:101A28001A631A6B02F008020192019A02941A6B67
:101A380042F004021A631B6B03F004030293029B37
:101A480001250395114B0493059403A91048FEF74B
:101A58007FFD4FF4704603960495059406940D4D4A
:101A680003A92846FEF774FD224631462846FEF7AC
:101A7800D5FE224621460620FEF7DAFC0620FEF7B0
:101A880019FD08B070BD00BF0038024000001110F9
:101A980000000240000C024008B50848084B0360EB
:101AA8004FF4E133436000238360C36003610C2279
:101AB80042618361C361FFF727FD08BD2400002050
:101AC8000014014008B54FF480510448FEF7C0FEE9
:101AD800022203490348FFF7F5FD08BD000C024048
:101AE800200000202400002070B594B00024019448
:101AF800234B1A6C42F080521A641B6C03F080531B
:101B08000193019B02941F4B1A6842F440421A60E9
:101B18001B6803F440430293029B022508950123A6
:101B28000B9310230C930E950F9408231093C02247
:101B3800119204261296139308A8FEF7A7FE0F2306
:101B48000393049505944FF4A05306934FF48053E0
:101B58000793032103A8FFF7BDF8FFF721FA0A4B03
:101B6800A3FB00308009FEF7BBFC3046FEF7CEFC35
:101B7800224621464FF0FF30FEF75AFC14B070BDE4
:101B88000038024000700040D34D621008B5FEF7DF
:101B9800FBFBFFF7A9FFFFF731FFFFF77DFF0B4CBA
:101BA8000A231D220A492046FFF72CFD0222094973
:101BB8002046FFF787FD4FF400410748FEF748FE2F
:101BC8004FF49670FEF708FCF5E700BF24000020EC
:101BD8006C1D000820000020000C0240704700BF68
:101BE80008B50720FEF706FC002211464FF0FF302B
:101BF800FEF71EFC08BD00BF0268154B9A4226D1AD
:101C080010B586B00024009403F592335A6C42F064
:101C180020025A645B6C03F020030093009BC023EE
:101C280001930223029301230393032304930823BC
:101C3800059301A90748FEF78BFC22462146472059
:101C4800FEF7F6FB4720FEF735FC06B010BD7047DF
:101C5800001401400008024008B5FEF7AFFBFEF78C
:101C680073FC08BD08B50120FEF704FE08BD00BFDF
:101C780008B50248FFF7B8FD08BD00BF24000020E2
:101C88002E2E2F73797374656D2F5372632F7374AF
:101C98006D333266342D68616C2F73746D33326620
:101CA8003478785F68616C5F636F727465782E63EF
:101CB800000000002E2E2F73797374656D2F5372F8
:101CC800632F73746D333266342D68616C2F7374AF
:101CD8006D3332663478785F68616C5F6770696FFE
:101CE8002E63000000000000010203040102030447
:101CF800060708092E2E2F73797374656D2F53729A
:101D0800632F73746D333266342D68616C2F73746E
:101D18006D3332663478785F68616C5F7263632E06
:101D2800630000002E2E2F73797374656D2F537224
:101D3800632F73746D333266342D68616C2F73743E
:101D48006D3332663478785F68616C5F7561727480
:101D58002E630000000000000000000001020304E0
:101D6800060708097465737470726F6772616D6D28
:101D78006120756172742D696E7465727570740D69
:041D88000A0000004D
:101D8C007856341218000020000000000024F400E3
:041D9C0032547698AF
:040000050800019955
:00000001FF
