:020000040800F2
:1000000000000220C9020008D1020008D502000841
:10001000ED020008F10200080903000800000000DA
:1000200000000000000000000000000021030008A4
:1000300025030008000000002903000895160008A9
:100040003D0300083D0300083D0300083D03000890
:100050003D0300083D0300083D0300083D03000880
:100060003D0300083D0300083D0300083D03000870
:100070003D0300083D0300083D0300083D03000860
:100080003D0300083D0300083D0300080000000098
:100090000000000000000000000000003D03000818
:1000A0003D0300083D0300083D0300083D03000830
:1000B0003D0300083D0300083D0300083D03000820
:1000C0003D0300083D0300083D0300083D03000810
:1000D0003D0300083D0300083D0300080000000048
:1000E0003D0300083D0300083D0300080000000038
:1000F0000000000000000000000000003D030008B8
:10010000000000003D0300083D0300083D03000817
:1001100000000000000000000000000000000000DF
:100120003D0300083D0300083D0300083D030008AF
:100130003D03000800000000000000000000000077
:100140000000000000000000000000003D03000867
:100150003D0300083D0300083D0300083D0300087F
:100160003D0300083D0300080000000000000000FF
:10017000000000000000000000000000000000007F
:10018000000000003D030008000000000000000027
:100190003D0300083D03000800B583B001F000F9FD
:1001A000384B394A1360394A136039490CE00A6800
:1001B0004B6801F10C04886803E01168196004338E
:1001C00004329842F9D82146324B9942EFD32E4B54
:1001D0001A68314B9A4204D12C4B1A682F4B9A4221
:1001E00000D0FEE7274B2E4A13602E4A13602E4B99
:1001F0000AE0194651F8082B5B6802E00020106005
:1002000004329A42FAD30B46284A9342F1D3244B44
:100210001B6813B9234B1B6803B1FEE701F0CCF850
:10022000694601A801F0B4F8214C224B1C1BA41014
:10023000002504E01E4B53F8253098470135AC42A9
:10024000F8DC1D4C1D4B1C1BA410002504E01A4BB0
:1002500053F8253098470135AC42F8DC00990198F5
:1002600001F0B2F90546164C164B1C1BA41004E015
:10027000013C134B53F824309847002CF8DC2846F7
:1002800001F084F8BABADECA000000201000002095
:100290004003000858030008785634123254769808
:1002A00014000020780000205803000868030008AC
:1002B0006803000868030008680300086803000872
:1002C000680300086803000808B5FFF765FF00BF72
:1002D00000BEFEE71EF0040F0CBFEFF30880EFF343
:1002E00009807146124A104700BEFEE700BEFEE7D5
:1002F0001EF0040F0CBFEFF30880EFF30980714686
:100300000C4A104700BEFEE71EF0040F0CBFEFF3CF
:100310000880EFF309807146074A104700BEFEE7E8
:1003200000BEFEE700BEFEE700BEFEE7704700002D
:10033000E9020008050300081D03000800BEFEE7EF
:100340008C17000800000020140000208C17000803
:100350000000001000000010140000207C000020AD
:08036000000000100000001075
:1003680010B5044600F0E8FD064BA3FB00308009F9
:1003780000F0A0F8002221464FF0FF3000F058F8B6
:10038800002010BDD34D621008B50B4B1A6842F41B
:1003980000721A601A6842F480621A601A6842F49D
:1003A80080721A60032000F025F80020FFF7D8FFBC
:1003B80001F038F9002008BD003C0240024A1368E9
:1003C80001331360704700BF1C000020014B186800
:1003D800704700BF1C00002010B582B00190FFF7E5
:1003E800F5FF0446FFF7F2FF001B019B9842F9D383
:1003F80002B010BD10B50446C31E042B03D9A421B6
:10040800094801F00DF9094AD36823F4E0631B0495
:100418001B0C240204F4E064234343F0BF6343F459
:100428000033D36010BD00BFA016000800ED00E047
:1004380070B504460E4615460F2A03D9BC211A4842
:1004480001F0EEF80F2E03D9BD21174801F0E8F8A6
:10045800164BDA68C2F30222C2F10701042928BF49
:100468000421131D062B01D9033A00E000220123C1
:1004780003FA01F101393140914003FA02F2013ADD
:100488002A400A43002C06DA04F00F041201D2B203
:10049800074B1A5570BD1201D2B204F1604404F53D
:1004A800614484F8002370BDA016000800ED00E048
:1004B80014ED00E00138B0F1807F0AD2064B586095
:1004C800F021064A82F823100020986007221A605B
:1004D80070470120704700BF10E000E000ED00E029
:1004E80010B50446042805D020B140F2B3110848DD
:1004F80001F096F8042C05D1064A136843F004036A
:10050800136010BD034A136823F00403136010BD81
:10051800A016000810E000E0704700BF08B5FFF71C
:10052800FBFF08BD2DE9F04782B080460F46AA4B75
:10053800984217D003F58063984213D003F580637F
:1005480098420FD003F5806398420BD003F580637F
:10055800984207D003F54063984203D0C5219F48CD
:1005680001F05EF83B881BB9C6219C4801F058F899
:100578007B68012B22D9112B20D0022B1ED0122BE5
:100588001CD0974A934219D002F58012934215D095
:1005980002F58012934211D0A2F5F81293420DD0C1
:1005A80002F58012934209D002F58012934205D0D9
:1005B800032B03D0C721894801F032F8BB68022B0E
:1005C80003D9C821854801F02BF80025FEE0012455
:1005D800AC403E682640B44240F0F7807B68022B6E
:1005E80001D0122B40D13B6973B3092B2CD05BB3DC
:1005F80053B34BB343B3012B26D025D0022B23D0C2
:1006080022D021D0042B1FD01ED01DD0052B1BD0EB
:100618001AD019D0062B17D016D0052B14D0062BBC
:1006280012D0072B10D00FD00ED0082B0CD00A2BCD
:100638000AD0092B08D007D00C2B05D00F2B03D0DC
:10064800D921664800F0ECFFEA08083258F8220081
:1006580005F0070399000F238B4020EA03003B694C
:100668008B40034348F82230D8F800304FEA450A57
:100678004FF0030909FA0AF96FEA090903EA0902BE
:100688007B6803F0030303FA0AF31343C8F8003046
:100698007B685A1E012A03D9112B01D0122B1BD1BA
:1006A800FB68032B03D9EC214C4800F0B9FFD8F8BC
:1006B800083009EA0302FB6803FA0AF31343C8F88F
:1006C8000830D8F8043023EA04047B68C3F3001325
:1006D800AB401C43C8F80440D8F80C3009EA0309B9
:1006E800BB6803FA0AF349EA0303C8F80C307B68CD
:1006F80013F0805F69D0002301933A4B5A6C42F49F
:1007080080425A645B6C03F480430193019BA908FF
:100718008A1C354B53F8222005F003039B000F2059
:10072800984022EA00002C4A904511D002F58062D8
:1007380090450FD002F5806290450DD002F5806299
:1007480090450BD002F58062904509D1042208E05B
:10075800002206E0012204E0022202E0032200E077
:10076800052202FA03F3034302311F4A42F82130FB
:100778001E4B1A68F34302EA0301786810F4803FBD
:1007880001D046EA0201194A1160526803EA0201DF
:10079800786810F4003F01D046EA0201134A51601C
:1007A800926803EA0201786810F4801F01D046EAD3
:1007B80002010E4A9160D2681340796811F4001F53
:1007C80001D046EA0203094AD36001350F2D7FF6AE
:1007D800FEAE02B0BDE8F08700000240D416000863
:1007E800000011100038024000380140003C014070
:1007F80070B5064615460C4621B940F2B1110848B5
:1008080000F00EFF012D04D94FF4D971044800F00F
:1008180007FF0DB1B46170BD2404B46170BD00BFA1
:10082800D416000830B583B0044603680F2B03D9EB
:10083800F6219C4800F0F4FE236813F0010F45D020
:100848006368012B05D9052B03D0FB21954800F0DF
:10085800E7FE954B9B6803F00C03042B0AD0924BE0
:100868009B6803F00C03082B0CD18F4B5B6813F4C7
:10087800800F07D08C4B1B6813F4003F26D06368A9
:1008880023BBCBE12279894B1A7063687BB1FFF7F0
:100898009DFD054605E0FFF799FD401B642800F221
:1008A800BF81814B1B6813F4003FF4D00EE0FFF7C3
:1008B8008DFD054605E0FFF789FD401B642800F221
:1008C800B181794B1B6813F4003FF4D1236813F00E
:1008D800020F6AD0E368012B04D940F22D11714848
:1008E80000F09EFE23691F2B04D94FF497716D48C1
:1008F80000F096FE6C4B9B6813F00C0F0AD06A4B05
:100908009B6803F00C03082B1BD1674B5B6813F43F
:10091800800F16D1644B1B6813F0020F03D0E368F5
:10092800012B40F081816048036823F0F8012369B6
:10093800F82292FAA2F2B2FA82F293400B430360D1
:1009480033E0E368FBB10122594B1A60FFF73EFD23
:10095800054605E0FFF73AFD401B022800F26681D4
:10096800514B1B6813F0020FF4D04F48036823F073
:10097800F8012369F82292FAA2F2B2FA82F29340BD
:100988000B43036011E00022494B1A60FFF71EFD7C
:10099800054605E0FFF71AFD401B022800F24881D2
:1009A800414B1B6813F0020FF4D1236813F0080FB2
:1009B8002ED06369012B04D94FF4B771394800F080
:1009C8002FFE636993B101223A4B1A60FFF7FEFCD0
:1009D800054605E0FFF7FAFC401B022800F22A81D1
:1009E800314B5B6F13F0020FF4D011E00022314B52
:1009F8001A60FFF7EBFC054605E0FFF7E7FC401B34
:100A0800022800F21981284B5B6F13F0020FF4D112
:100A1800236813F0040F60D0A368012B06D9052BB7
:100A280004D04FF4CC711F4800F0FAFD0023019365
:100A38001D4B1A6C42F080521A641B6C03F08053F1
:100A48000193019B1C4A136843F480731360FFF7FA
:100A5800BDFC054605E0FFF7B9FC401B022800F283
:100A6800ED80154B1B6813F4807FF4D0227A134B6A
:100A78001A70A3688BB1FFF7A9FC054607E0FFF7DA
:100A8800A5FC401B41F28833984200F2D980064BFE
:100A98001B6F13F0020FF2D01FE0FFF797FC05461B
:100AA80016E000BF14170008003802400238024060
:100AB80000004742800E47420070004070380240F4
:100AC800FFF784FC401B41F28833984200F2BA8059
:100AD800634B1B6F13F0020FF2D1A369022B04D9E9
:100AE80040F2CD115F4800F09BFDA369002B00F098
:100AF800AB805B4A926802F00C02082A00F0A680DC
:100B0800022B78D1E3693BB1B3F5800F04D04FF4E1
:100B1800EB71544800F084FD236A3F2B04D940F25E
:100B2800D711504800F07CFD636AC03BF02B04D914
:100B38004FF4EC714B4800F073FDA36A022B0AD006
:100B4800042B08D0062B06D0082B04D040F2D9116C
:100B5800444800F065FDE36A043B0B2B04D94FF4CD
:100B6800ED71404800F05CFD00223F4B1A60FFF732
:100B78002DFC054604E0FFF729FC401B022867D836
:100B8800374B1B6813F0007FF5D1E169236A1943DD
:100B9800636A47F6C07292FAA2F2B2FA82F29340FE
:100BA8001943A36A5B085A1E4FF4403393FAA3F320
:100BB800B3FA83F302FA03F30B43E26A4FF070616E
:100BC80091FAA1F1B1FA81F18A401343244A5360A2
:100BD8000122254B1A60FFF7F9FB044604E0FFF7F2
:100BE800F5FB001B022835D81D4B1B6813F0007F4E
:100BF800F5D0002031E000221B4B1A60FFF7E6FB1E
:100C0800044604E0FFF7E2FB001B022824D8144B3B
:100C18001B6813F0007FF5D100201EE001201CE0C6
:100C280003201AE0032018E0012016E0032014E056
:100C3800032012E0032010E003200EE003200CE064
:100C480003200AE0032008E0002006E0012004E079
:100C5800032002E0032000E0032003B030BD00BF02
:100C680000380240141700086000474270B5044677
:100C78000D460368013B0E2B04D94FF40E718348CF
:100C880000F0CEFC072D04D940F239217F4800F04E
:100C9800C7FC7F4B1B6803F00F039D4208D9EBB2DA
:100CA8007B4A1370136803F00F039D4240F0DB800A
:100CB800236813F0020F1DD0A368A3B1802B12D0B4
:100CC800902B10D0A02B0ED0B02B0CD0C02B0AD05C
:100CD800D02B08D0E02B06D0F02B04D04FF41471A1
:100CE8006A4800F09DFC6B498B6823F0F002A3680A
:100CF80013438B60236813F0010F64D06368032BE0
:100D080004D940F25721614800F08AFC6268012A40
:100D180005D1604B1B6813F4003F0FD1A5E0931E6B
:100D2800012B05D85B4B1B6813F0007F06D19EE0B2
:100D3800584B1B6813F0020F00F09B8055498B68D5
:100D480023F0030313438B60FFF740FB06466368F9
:100D5800012B0FD107E0FFF739FB801B41F28833E5
:100D6800984200F288804B4B9B6803F00C03042BDD
:100D7800F1D128E0022B0ED106E0FFF727FB801BFC
:100D880041F28833984278D8424B9B6803F00C03B1
:100D9800082BF2D117E0032B10D13E4B9B68FFF7CD
:100DA80015FB801B41F288339842F6D967E0FFF7BC
:100DB8000DFB801B41F28833984262D8354B9B6803
:100DC80013F00C0FF3D1324B1B6803F00F039D4255
:100DD80007D2EAB22E4B1A701B6803F00F039D422C
:100DE80051D1236813F0040F19D0E36883B1B3F528
:100DF800805F0DD0B3F5A05F0AD0B3F5C05F07D010
:100E0800B3F5E05F04D040F2B521204800F008FCBB
:100E180020498B6823F4E052E36813438B6023680E
:100E280013F0080F1AD0236983B1B3F5805F0DD092
:100E3800B3F5A05F0AD0B3F5C05F07D0B3F5E05FA4
:100E480004D04FF42F71114800F0EAFB114A93685F
:100E580023F46043216943EAC10393600020FFF74C
:100E68007FFA002070BD012070BD012070BD0120F7
:100E780070BD012070BD032070BD032070BD03202C
:100E880070BD032070BD012070BD00BF141700089D
:100E9800003C024000380240244B9B6803F00C03DE
:100EA800042B3FD0082B01D02148704710B41F4BAA
:100EB800586800F03F005B6813F4800F10D01D4B9A
:100EC800B3FBF0F0194B5A6847F6C0710A4091FA23
:100ED800A1F3B3FA83F322FA03F303FB00F310E060
:100EE800134BB3FBF0F0114B5A6847F6C07402EA93
:100EF800040194FAA4F2B2FA82F221FA02F202FB95
:100F080000F30A4A506800F440324FF4403090FA37
:100F1800A0F0B0FA80F022FA00F001304000B3FBF4
:100F2800F0F001E00348704710BC704700380240F9
:100F38000024F40000D8B80508B5FFF7ADFF084B4A
:100F48009B6803F0F002F02393FAA3F3B3FA83F358
:100F580022FA03F3034AD35CD840034B186008BD58
:100F680000380240041700080C000020F8B50546B8
:100F78000F4616461C4636E0B4F1FF3F33D02CB17D
:100F8800FFF724FA069BC01A84422CD82A685368B3
:100F980023F0E00353606B68B3F5827F0BD1AB6835
:100FA800B3F5004F02D0B3F5806F04D12A681368F7
:100FB80023F040031360AB6AB3F5005F0BD12A68D6
:100FC800136823F400531B041B0C13602A6813686E
:100FD80043F400531360012385F85130002385F84A
:100FE80050300320F8BD2B689B683B40B342C3D107
:100FF8000020F8BD10B582B0044600920B460022CE
:101008008021FFF7B3FF034620B1636D43F020034F
:1010180063650323184602B010BD00BF002800F026
:10102800DD8010B5044603686D4A934214D0A2F5DA
:101038007842934210D002F5806293420CD002F5B8
:101048007842934208D002F5E052934204D04FF41C
:101058008671644800F0E4FA63683BB1B3F5827FB7
:1010680004D040F20D115F4800F0DAFAA36853B1DA
:10107800B3F5806F07D0B3F5004F04D04FF48771F4
:10108800584800F0CDFAE368B3F5006F05D023B1F6
:1010980040F20F11534800F0C3FAA369B3F5007F7B
:1010A80008D03BB1B3F5802F04D04FF488714D4878
:1010B80000F0B6FAE36993B1082B10D0102B0ED0CC
:1010C800182B0CD0202B0AD0282B08D0302B06D078
:1010D800382B04D040F21111424800F0A1FA236ADB
:1010E80033B1802B04D04FF489713E4800F098FA50
:1010F800636A33B1102B04D040F21311394800F061
:101108008FFA636A83B9236933B1022B04D04FF491
:101118008B71344800F084FA6369012B04D940F2DA
:101128001711304800F07CFAA36A3BB1B3F5005FB1
:1011380004D04FF48D712B4800F072FAA36AB3F50E
:10114800005F0AD1E36A013B4FF6FE72934204D96D
:1011580040F21D11234800F063FA94F8513013F05F
:10116800FF0F05D1002384F85030204600F066FABE
:10117800022384F851302268136823F04003136077
:1011880021686268A3681A43E3681A4323691A430B
:1011980063691A43A36903F400731343E2691343B1
:1011A800226A1343A26A1A430A602168638B03F018
:1011B8000402636A13434B60A36AB3F5005F02D16C
:1011C8002368E26A1A612268D36923F40063D36151
:1011D80000206065012384F8513010BD012070475C
:1011E80000300140441700082DE9F04182B0044660
:1011F8000E4617461D4683683BB1B3F5004F04D031
:101208004FF4E2715E4800F00BFA94F85030012B6D
:1012180000F0B180012384F85030FFF7D7F88046FA
:1012280094F85130DBB2012B40F08F80002E00F093
:101238008E80002F00F08D80032384F85130002326
:1012480063652663A786E786A363A387E38763644A
:101258002364A368B3F5004F04D12268136843F4EC
:1012680080431360A36AB3F5005F0BD1226813684B
:1012780023F400531B041B0C13602268136843F407
:101288000053136023681A6812F0400F03D11A68DC
:1012980042F040021A60E368B3F5006F32D116E0FD
:1012A80023689A6812F0020F06D036F8022BDA602B
:1012B800E38E013BE3860AE0002D4CD0B5F1FF3FF9
:1012C80005D0FFF783F8C8EB0000854245D9E38EC7
:1012D800002BE5D119E023689A6812F0020F06D0B6
:1012E80016F8012B1A73E38E013BE3860AE0002D02
:1012F80035D0B5F1FF3F05D0FFF768F8C8EB00001F
:1013080085422ED9E38E002BE5D1A36AB3F5005FA1
:1013180004D12268136843F4805313604246294677
:101328002046FFF767FE18B1636D43F0200363653D
:10133800A36833B901932368DA6801929B68019323
:10134800019B636D7BB900200EE002200CE00120B8
:101358000AE0012008E0032006E0032004E003205F
:1013680002E0032000E00120012384F8513000232B
:1013780084F8503000E0022002B0BDE8F08100BFE0
:1013880044170008FEE700BF01230360014B0B6010
:10139800704700BF0400002008B500F00DF8024BAC
:1013A800024A9A6008BD00BF00ED00E00000000896
:1013B80008B500F021F808BD0C4B1A6842F001028C
:1013C8001A60002199601A6822F0847222F480322F
:1013D8001A60074A5A601A6822F480221A60D96093
:1013E8004FF00062034B9A60704700BF003802401C
:1013F8001030002400ED00E0224B9B6803F00C0342
:10140800042B07D0082B09D0002B2DD11E4A1F4BC7
:101418001A602CE01E4A1D4B1A6028E0194B5A68C6
:101428005B6803F03F0312F4800F09D0184AB2FB3F
:10143800F3F2144B5B68C3F3881303FB02F208E072
:10144800114AB2FBF3F30F4A5168C1F3881101FB4B
:1014580003F20C4B5B68C3F3014301335B00B2FB3F
:10146800F3F30A4A136002E0074A084B1A60054B77
:101478009B68C3F30313074AD15C044A1368CB4043
:1014880013607047003802400024F4000C0000206C
:1014980000D8B8057417000830B587B00024009448
:1014A8000D4B1A6B42F001021A631B6B03F0010328
:1014B8000093009B094D224610212846FFF798F912
:1014C80010230193012302930394049401A928464D
:1014D800FFF728F807B030BD00380240000002408E
:1014E80008B50C480C4B03604FF48273436000232B
:1014F8008360C360036143614FF4007282613022EC
:10150800C2610362436283620A23C362FFF786FDF6
:1015180008BD00BF200000200030014070B594B025
:1015280000240194234B1A6C42F080521A641B6CFD
:1015380003F080530193019B02941F4B1A6842F4F5
:1015480040421A601B6803F440430293029B022541
:10155800089501230B9310230C930E950F940823E1
:101568001093C022119204261296139308A8FFF72D
:1015780059F90F230393049505944FF4A053069348
:101588004FF480530793032103A8FFF76FFBFFF77E
:10159800D3FC0A4BA3FB00308009FEF78BFF3046D3
:1015A800FEF79EFF224621464FF0FF30FEF740FF30
:1015B80014B070BD0038024000700040D34D621076
:1015C80010B582B0FEF7E0FEFFF7A8FFFFF764FF53
:1015D800FFF786FF0F4B93E8030000908DF8041087
:1015E800012210210C48FFF703F90B4C00221021AF
:1015F8002046FFF7FDF80123042269460748FFF754
:10160800F3FD012210212046FFF7F2F86420FEF7CF
:10161800E3FEEAE7841700080000024020000020EB
:10162800704700BF08B50720FEF7E4FE0022114608
:101638004FF0FF30FEF7FCFE08BD00BF0268114BFB
:101648009A421ED100B587B00021009103F584337A
:101658005A6C42F480525A645B6C03F480530093D2
:10166800009BE02301930223029303910323049335
:101678000523059301A90448FEF754FF07B05DF858
:1016880004FB7047003001400000024008B5FEF737
:1016980095FEFEF743FF08BD2E2E2F7379737465F0
:1016A8006D2F7372632F73746D333266342D6861D6
:1016B8006C2F73746D3332663478785F68616C5F51
:1016C800636F727465782E63000000002E2E2F73EE
:1016D800797374656D2F7372632F73746D3332660B
:1016E800342D68616C2F73746D3332663478785F8B
:1016F80068616C5F6770696F2E630000000000000E
:101708000102030401020304060708092E2E2F73A1
:10171800797374656D2F7372632F73746D333266CA
:10172800342D68616C2F73746D3332663478785F4A
:1017380068616C5F7263632E630000002E2E2F7346
:10174800797374656D2F7372632F73746D3332669A
:10175800342D68616C2F73746D3332663478785F1A
:1017680068616C5F7370692E630000000000000000
:101778000000000001020304060708097465737479
:04178800000000005D
:10178C007856341218000020000000000024F400E9
:04179C0032547698B5
:040000050800019955
:00000001FF
